:04000000020039328F
:01000B0032C2
:0100130032BA
:01001B0032B2
:0100230032AA
:03002B000200C30D
:0300330002017C4B
:030092007518FFDF
:03009F0002003626
:030036000202F0D3
:2000A2008582E075F041D5F0FDD5E0F7227F0110AF027F00851182E4F511F512EF1392AF15
:2000C20022C2AFC0E0C0D010CF028009D51335C2CAD2CB802F10CE02802A30B20D740125E9
:2000E20011F511E43512F5128009151174FFB511021512C2CA75CD0075CC00C2CBC2CFD2A5
:20010200CA75130AD0D0D0E0D2AF32AF16108D0280114307800517744025175006430740D3
:20012200751700E5146009EF30E70215148F82228F0574015DFB7C00A286E4337A00B5031D
:200142001FEAB5041BAB167C006303018B166305018D07751406EF30E00343070275150017
:2001620074815FFEBE81107480B51503430704E515247F400205158F8222C2AFC0E0C0824E
:20018200C083C0D075D00820DF0302025574FFB5180675180002022185DB1A85DA19AF1831
:2001A2000518EF2FFF2473F9A71909A71A74F42518506C751800E51020E764797378657F53
:2001C2000E870E09A60E08DFF87F017E04890D8D09870B09870C190D0DC3EB94AAEC94AA39
:2001E2005007EFF4FA5210800CC3742C9B74BE9C5003EF42108F0CEC2CFFDED37889860E83
:2002020008860FC3EE9440EF949C5005431010800BC3E49E74FA9F50035310EF431080C2CC
:20022200DFE51825E025E0FF9018DC93F5D20FEF9018DC93F5E60FEF9018DC93FE8EB0A216
:20024200E3E433FE24FF9287EF049018DC93F5D475D162D0D0D083D082D0E0D2AF327F01C5
:2002620010AF027F00431020EF1392AFD283227F0110AF027F005310DFEF1392AFC2832263
:20028200AF8274105FFD7E0074205FFB7C0074C75FFAE51030E719ED4E6015120F657901FA
:2002A20010AF02790053107FE91392AF75821022E51145126008EB4C600475822022EA60E7
:2002C200D1C007C006C005C004C003C00212010DA982D002D003D004D005D006D007EF5922
:2002E20054C760AE89822275AF017582002275A80075D70075D14075D20775E64F75D4FF39
:2003020075E80875F830759E82759D2D7598507580527590FF75A0FF75B0377589017588F1
:200322001075CA0075CB0075C80875A8E075D1621203797546FF121750E54624FB402DE5E5
:200342004675F003A490034B7302037102035A02035F020364020369120D7D80DC120E25AB
:1703620080D7120E7480D212114080CD120BBD120BCC85824680C245
:2018DC00274A47FF254A07FF254A27FF254A77FF254A57FF274B37FF274437FF254A0F4575
:1018FC00254A2F45254A7F45254A5F4507453745EB
:200379007E0C7F19D280758205C007C0061200A2D006D0078E828F83E493FD605EC282C2AC
:20039900818DF774012EFCE43FFD10FF0280FBD281D2828C828D83E493FB74012CFEE43DFD
:2003B900FFEB30E710758296C007C0061200A2D006D00780BF8E048F058B021BEA60B5C2CA
:2003D900818C828D83E493F5F7A3AC82AD838C068D0710FF0280FBD28180DE752100752271
:2003F900407523017524F0752502900000120496D2A622AE82AF83EE24FFFCEF34FFFDEC96
:200419002560F560ED3561F561AD5F1DAC62ED2CF562C282C28175F72A10FF0280FBD2826C
:200439008FF710FF0280FB8EF710FF0280FB8561F710FF0280FB8560F710FF0280FBD2815C
:20045900C282C28175F72B10FF0280FBD28275F70010FF0280FB855FF710FF0280FB75F7BA
:200479000010FF0280FB8562F710FF0280FBD281C282C28175F72C30FFFDD2822285215F54
:2004990085226085236185246212040CAE22E523C313CE13CEE52590226F93FFAD250DED20
:2004B90090226F93FDEE7014AC2410FF0280FB8FF710FF0280FB8DF7DCF0805DE52230E04E
:2004D90034AC248E0310FF0280FB8FF710FF0280FB8DF710FF0280FB8FF710FF0280FB8D21
:2004F900F7DBE210FF0280FB8FF710FF0280FB8DF7DCD08024AC248E0310FF0280FB8FF74A
:2005190010FF0280FB8DF710FF0280FB8FF710FF0280FB8DF7DBE2DCDE10FF0280FBD2813A
:20053900227EC37F22755F00E55F9032C493FC2424F560E4342DF5618E828F83E493FA7432
:20055900012EF8E43FF97562028A031AEB606688828983E493FBA3A882A98385606385615F
:20057900648B051BED603D10FF0280FBE5622563F582E43564F583E493F5F710FF0280FB13
:20059900AC627D000CBC00010DEC2563F582ED3564F583E493F5F774042563F563E43564C0
:2005B900F56480BD856360856461AC627D006304028C62809488068907055F7410255F403A
:2005D9000302054122755F007560407561017562F090000012040C12053A10FF0280FBD2AD
:2005F900812285822A85832B85F02C12183AAB827C008B60ECC40354F8C560C403C56065CD
:2006190060C56054F8C5606560F56185285F75621085268285278312040CE52990226F937D
:20063900FCE529FB0490226F93FA74022B90226F93F90B0B0BEB90226F93FB752D00852A90
:200659002E852B2F852C30852E82852F838530F0121852FFFE60667F00EE24E0FEEF34FFB2
:20067900C454F0CEC4CE6ECE54F0CE6EFFA82D7D00E82EFEED3FFFEE2456F582EF3419F59D
:2006990083E493FF7E08EF30E71010FF0280FB8CF710FF0280FB8AF7800E10FF0280FB89ED
:2006B900F710FF0280FB8BF78F05ED2DFFEE14FDFE70D3052EE4B52E8E052F808A052D74C3
:2006D90010B52D02800302065710FF0280FBD2812285823585833685F03712183AAB827CF7
:2006F900008B60ECC454F0C560C4C5606560C56054F0C5606560F56185335F7562208531C2
:200719008285328312040CE53490226F93FCE534FB0490226F93FA74022B90226F93F90BFA
:200739000B0BEB90226F93F53C753800E538C313FF85353985363A85373B853982853A83BA
:20075900853BF0121852FEFD70030207EB7E00ED24E0FDEE34FFC454F0CDC4CD6DCD54F081
:20077900CD6DFE8F007B00E82DFDEB3EFEED2456F582EE3419F583E493FE7D08EE30E71E37
:2007990010FF0280FB8CF710FF0280FB8AF710FF0280FB8CF710FF0280FB8AF7801E10FF5B
:2007B9000280FB89F710FF0280FB853CF710FF0280FB89F710FF0280FB853CF78E03EB2BE8
:2007D900FEED14FBFD70B50539E4B53902053A02075305387420B53802800302074510FF97
:2007F9000280FBD28122AE82AF83C2AF8E828F83E493FD74012EFBE43FFCEDF53D70030234
:2008190009BF8B828C83E493FD0BBB00010C8D408B828C83E493FD0BBB00010C8B828C8348
:20083900E493F53F74012BFEE43CFFE4F541F543E53D30E703754101E53D30E5278E828FF5
:2008590083E493FC74012EFAE43FFB8C428A828B83E493F53E74012AFEE43BFFE53D30E649
:2008790003754301743F553DFCBC010302093CBC20028008BC210280250209BC85408285DE
:2008990041838542228543238D21853E24853F25C007C006120496D006D00702080585406F
:2008B900828541838D21752201752300853E24853F25C007C006C005120496D005E5422587
:2008D90040FBE5433541FCEB24FFF582EC34FFF5838D21752201752300853E24853F25C0A0
:2008F90005120496D0058540828541838542228543238D21752401853F25C005120496D083
:2009190005854082854183E53E2D14F521854222854323752401853F25120496D006D007FF
:200939000208058E448F45AA44AB457C808A828B838CF0C007C006C00512183AE582858354
:20095900F0D005D006D0072401FBE435F0FCEB2EFEEC3FFFE53D30E625AA44AB457C8085EA
:2009790040318541328D33853F348A828B838CF0C007C0061206EAD006D007020805AA446E
:20099900AB457C808540268541278D28853F298A828B838CF0C007C0061205FBD006D007F6
:0909B900020805D2AF22D2AF22E0
:20190C0001802800CB05392C003402CF0300C130ED0464031281E803850078EA020000F72E
:20192C000120C00123C10110C5023E28C701863601E83A0155B1020018260101B70107B632
:20194C00040A8227001180298000000000000000000000000000000000000000183C3C3CBE
:20196C0018181800181800000000006666662400000000000000000000000000006C6CFEB7
:20198C006C6C6CFE6C6C0000000018187CC6C2C07C0686C67C181800000000000000C2C62B
:2019AC000C183060C686000000000000386C6C3876DCCCCCCC7600000000003030306000B7
:2019CC000000000000000000000000000C18303030303030180C00000000000030180C0C33
:2019EC000C0C0C0C1830000000000000000000663CFF3C6600000000000000000000001808
:201A0C00187E1818000000000000000000000000000000181818300000000000000000007C
:201A2C0000FE00000000000000000000000000000000000018180000000000000000020664
:201A4C000C183060C0800000000000007CC6C6CED6D6E6C6C67C0000000000001838781836
:201A6C0018181818187E0000000000007CC6060C183060C0C6FE0000000000007CC6060696
:201A8C003C060606C67C0000000000000C1C3C6CCCFE0C0C0C1E000000000000FEC0C0C090
:201AAC00FC0E0606C67C0000000000003860C0C0FCC6C6C6C67C000000000000FEC606064A
:201ACC000C18303030300000000000007CC6C6C67CC6C6C6C67C0000000000007CC6C6C66A
:201AEC007E0606060C78000000000000000018180000001818000000000000000000181836
:201B0C0000000018183000000000000000060C18306030180C060000000000000000000045
:201B2C00FE0000FE0000000000000000006030180C060C1830600000000000007CC6C60C1B
:201B4C00181818001818000000000000007CC6C6DEDEDEDCC07C00000000000010386CC6CD
:201B6C00C6FEC6C6C6C6000000000000FC6666667C66666666FC0000000000003C66C2C01B
:201B8C00C0C0C0C2663C000000000000F86C6666666666666CF8000000000000FE6662683B
:201BAC007868606266FE000000000000FE6662687868606060F00000000000003C66C2C0D1
:201BCC00C0DEC6C6663A000000000000C6C6C6C6FEC6C6C6C6C60000000000003C181818B7
:201BEC0018181818183C0000000000001E0C0C0C0C0CCCCCCC78000000000000E6666C6CCB
:201C0C0078786C6666E6000000000000F06060606060606266FE000000000000C6EEFEFE04
:201C2C00D6C6C6C6C6C6000000000000C6E6F6FEDECEC6C6C6C6000000000000386CC6C650
:201C4C00C6C6C6C66C38000000000000FC6666667C60606060F00000000000007CC6C6C6D4
:201C6C00C6C6C6D6DE7C0C0E00000000FC6666667C6C666666E60000000000007CC6C66026
:201C8C00380C06C6C67C0000000000007E7E5A1818181818183C000000000000C6C6C6C6AC
:201CAC00C6C6C6C6C67C000000000000C6C6C6C6C6C6C66C3810000000000000C6C6C6C688
:201CCC00C6D6D6FE6C6C000000000000C6C66C6C38386C6CC6C600000000000066666666E0
:201CEC003C181818183C000000000000FEC6860C183060C2C6FE0000000000003C303030B0
:201D0C0030303030303C0000000000000080C0E070381C0E06020000000000003C0C0C0C31
:201D2C000C0C0C0C0C3C0000000010386CC6000000000000000000000000000000000000A5
:201D4C0000000000000000FF00003030180000000000000000000000000000000000007888
:201D6C000C7CCCCCCC76000000000000E06060786C66666666DC0000000000000000007C81
:201D8C00C6C0C0C0C67C0000000000001C0C0C3C6CCCCCCCCC760000000000000000007CF1
:201DAC00C6FEC0C0C67C000000000000386C6460F060606060F00000000000000000007653
:201DCC00CCCCCCCCCC7C0CCC78000000E060606C7666666666E600000000000018180038C7
:201DEC0018181818183C0000000000000606000E06060606060666663C000000E0606066D7
:201E0C006C78786C66E60000000000003818181818181818183C000000000000000000EC82
:201E2C00FED6D6D6D6D6000000000000000000DC6666666666660000000000000000007CAE
:201E4C00C6C6C6C6C67C000000000000000000DC66666666667C6060F000000000000076A0
:201E6C00CCCCCCCCCC7C0C0C1E000000000000DC7662606060F00000000000000000007C68
:201E8C00C660380CC67C000000000000103030FC30303030361C000000000000000000CC40
:201EAC00CCCCCCCCCC7600000000000000000066666666663C18000000000000000000C68C
:201ECC00C6C6D6D6FE6C000000000000000000C66C3838386CC6000000000000000000C682
:201EEC00C6C6C6C6C67E060CF8000000000000FECC183060C6FE0000000000000E181818E4
:201F0C0070181818180E000000000000181818180018181818180000000000007018181847
:201F2C000E181818187000000000000076DC0000000000000000000000000000000010381D
:0A1F4C006CC6C6C6FE0000000000CF
:201F56006000000040F041206402506C656173652C2077616974202E2E2E000020000010DF
:201F7600841020BC00108410018400124F46464C494E45006000100040E0415028024E6F95
:201F960020426174746572790041585202436F6E6E6563746564000020000010841020BC10
:201FB60000108410018400124F46464C494E45006000100040E041301E024261747465724A
:201FD600793A202020202056004158430243313A202020202056004158640243323A2020D2
:201FF60020202056004158850243333A202020202056004158A60243343A20202020205667
:2020160000002000E0164010A000E01640100140E0184C617374204368617267696E67202E
:2020360074696D653A202020202000002000E016051020ADE01693100105E01843686172F4
:2020560067696E672041626F727465643A2020202000002000E0163010A010E016301001ED
:2020760030E01844656164206261747465727920287265706C6163652063656C6C73290019
:20209600002000E016541020ECE01654100154E0184F76657263686172676564206261743C
:2020B60074657279000020000010881020B800108810018800124F4E4C494E45006000102E
:2020D6000040E0413011022020496E7075743A2020202020560041303202426174746572BF
:2020F600793A202020202056004158570243313A202020202056004158780243323A202089
:2021160020202056004158990243333A202020202056004158BA0243343A2020202020561D
:2021360000002000E0163010A010E01630100130E0185072657373206B6E6F6220746F202A
:202156007374617274206368617267696E67000020000010881020B80010881001880012F5
:20217600434841524745006000100040D02000E016051020A5E0169B100105E01843686184
:202196007267652074696D653A20202020202020200041401402496E7075743A2020202081
:2021B600205600410843024368617267653A2020202020562F20202020410041086D0243A0
:2021D600313A20202020205600209F6D02034341A96D0243323A202020202056004108903D
:2021F6000243333A2020202020560041A9900243343A202020202056006108B81630200077
:202216002000E01605102055E016EB100105E01841626F727465643A202000002000E016C8
:20223600701020D0E01670100170E018446F6E6520696E20202020200000812B00124343D8
:202256000000812B00124356000001F3E0184554413A202020202000000000FFFF0000F87B
:1522760000000007E00000001F4208FFFF42087BEF00007BEFE7
:2009C200EA8582F0A4A9F0EA8583F0A485F082295002058222AE82AF83BEFF07BFFF0475F9
:2009E20082FF22C3744B9E74799F4004758200227AD2EE24B5F582EF3486F5830209C2AE23
:200A020082AF83BEFF07BFFF047582FF22C374269E74789F4004758200227AD4EE24DAF570
:200A220082EF3487F5830209C2AE82AF83C3749C9E74F59F50047582FF22C374759E7478C6
:200A42009F400475820022EE248BF582EF3487F583020A56743E2582F58250020583E583EE
:200A620075F009A42582500205F0C333F9E5F033FAE58275F012A4E5F02950010AEA258316
:200A82002583F58222E58375F0CDA42582500205F0A9F0C58275F0CDA4E5F025825001095B
:200AA200E58329F58222AE82AF83C374C59E748C9F50047582FF2274472EF582E43FF58308
:200AC200020A87AF82BF00028005BFFF10800790228B75F0802290229075F08022788E75AD
:200AE200F00AE58284F9AEF074302EF618762E1875F00AE984F9AEF074302EF618743129BB
:200B0200F690008B75F04022AF82BFFF0790229575F08022758319788E75F00AE58284F94D
:200B2200AEF074302EF61875F00AE9258384F9AEF074302EF618762E18743029F690008BA0
:190B420075F04022AF82BFFF0790229A75F080227E008F828E83020B19C4
:14228B00203C313000203E3231003E352E31003E322E35001C
:03009500751B7F59
:200B5B000022D2EE751C00C2EF120B5BC2ED22D2EEC2EF120B5BD2ED120B5BD2EF22D2EE4A
:200B7B00C2ED75F008E5823392EF715BD2ED715BC2ED0000D5F0F0C2EED2ED715B30EC030E
:200B9B00751C01C2ED22120B5D758278120B79758200120B79851B82120B79120B6A851CEB
:020BBB00822294
:07009800E4F54DF54EF54FB4
:200BBD001205DE75821012028275821002028278658606088607C3EE94C1EF947850047531
:200BDD0082012278718606088607C3EE94E7EF947950047582022275820322741F55107826
:200BFD0090F678658682088683120A01E5827891F6E51030E510786F8682088683120AA8FB
:200C1D00AE827F0080047E007F007892A6067F0474022465F974032490F887050987060908
:200C3D008D828E83C007C006C005C001C000120A2BAC82D000D001D005D006D007BCB2009E
:200C5D00400EC0007890860374204B7890F6D000A60408EC702E740328FC8D828E83C0076D
:200C7D00C004C001C000120A56E582D000D001D004D007C000A804F67890860674404E787D
:200C9D0090F6D000EF14FF709122AE82AF837547047890860474082EF548E43FF549740349
:200CBD002490F98705097B00EC30E0027B03BDB20040027B02ED60248D82C007C006C004DF
:200CDD00C003C001120B0A85824A85834B85F04CD001D003D004D006D007802E7B01740321
:200CFD0029F886057A008D828A83C007C006C004C003C001120B1985824A85834B85F04C25
:200D1D00D001D003D004D006D0078E828F83E493FD8D317532008E828F83A3E493F533EB47
:200D3D002548F582E43549F583E493F534854A82854B83854CF0C007C006C004C0011206A9
:200D5D00EAD001D004D006D00774022EFEE43FFFECC313FCE54714FD8D476003020CC02254
:200D7D00901F721207FF7401B5460E758210120282120BCC85824680ED758210020282785A
:200D9D0090E6FF30E6089020691207FFC322EF30E5089020971207FFC322E54D454E6020F8
:200DBD009020421207FF7526957527007528E0752918854D82854E83854FF01205FBD32298
:200DDD00789BE66021789F76009020181207FF7526E07527007528E075291890009B75F035
:200DFD00401205FBD3223000089021381207FF80157521E075224075230175241075250098
:200E1D00900000120496D322901FAE1207FF7402B5463E120BF890229F120CA77891868224
:200E3D00120AC5AD82AE83AFF07531C075320075331E7534028D828E838FF01206EAC200D4
:200E5D00120D9C758210120282120BCC85824680BD7582100202829020BC1207FF7403B56D
:200E7D0046028003020F18120BF89022AB120CA778918682120AC5AD82AE83AFF07531C0D3
:200E9D007532007533327534028D828E838FF01206EA787186820886831209D7120AC5ADE6
:200EBD0082AE83AFF07531C07532007533117534028D828E838FF01206EAD200120D9CD252
:200EDD0000120D9C500A758212120282AF82800C7F00758210C007120282D007C007120BE6
:200EFD00CC858246D007EF20E103020E7A7403B546028003020E7A754604227582100202FB
:010F1D008251
:20229F0098439864988598A60204060A98579878989998BA0204060A486DE96D4890E990E3
:0422BF000204060A05
:200F1E0085829910990280FB22E582FF251DF51DBF5A0C75825A120F1E758202020F1E8FA5
:200F3E0082020F1E745AB51D0C75825A120F1E758201020F1E75825A120F1E758200120FD7
:200F5E001E851D82020F1E7F0E751D0075825AC007120F1E758280120F1ED0077965878218
:200F7E0009C007C001120F27D001D007EF14FF70ED851082120F27851B82120F27020F4257
:200F9E00AE82AF8375825AC007C006120F1E758240120F1ED006751D008E82C006120F27B8
:0C0FBE00D006D0078F82120F27020F42CE
:2022C30003FF004103FF004103FF004103FF004103FF004103FF004103FF004103FF0041E3
:2022E30003FF004103FF004103FF004103FF004103FF0041051C0AFF001B051818FF001102
:20230300051526FF0006031333FA031140EF030F4CE5030E55DD030D59DA030C5BD9030BD5
:202323005ED7050A602403AF0509612011A50508631D15A30508641B16A30507651A17A30C
:202343000507651917A40507661817A40507661718A40506671619A40506671618A5070614
:202363003A06271519A507063A101D141AA507063A0F1E141AA507063A0F1D141AA607063E
:202383003A0F1D131BA607063A0E1E131BA60707390E1E121CA60707390E1D121CA707071D
:2023A300390D1E121CA70908370E1E111D480B540908370E1E101E480B540909360D1E11CB
:2023C3001E470C540909350E1E101E480C54090A340E1E0F1F480C54090B320E1E101F48BA
:2023E3000C54090B320E1E0F20480B55090C300F1E0E20490B550B0D2E0F1E0F20480C34BE
:20240300041D0B0E2C101E0E21480C34041D0B1029111E0D22480C34041D0B1127111F0C83
:2024230022490C34041D0B1323131E0D22490C33041E0B1421141E0C23490B34041E0B1616
:202443001D151F0B24490B34041E0B1918171E0C23490C34041E0B1C111B1E0B24490C33DC
:20246300051E09471F0A25490C33051E09471E0B25490C33051E09471E0A254A0C32061E5B
:2024830009461F09264A0B33061E09461F0926490C32071E09461E0927490C31081E094510
:2024A3001F0828490C300D1A09451F08274A0C2B121A09451E08284A0C1C211A09441F0719
:2024C300294A0C102D1A09441F0729490C06371B09441E07294A0C05381B0B431F0612010B
:2024E300174A0C04371D0D431F061102172F0C0F0C03361F0F4220051103172218100C03CD
:202503002906071F11421F051202171D1E100C031F010609071F11421F051103171A211025
:202523000C021C050609071F1341200411041718230F0C030F0409050708071F13411F046A
:2025430011041816250F0C030E0509050708071F13411F0411041716260F0C030E040A057E
:202563000708071F134020031105171526100C030E040A050708071F13401F03110617131A
:2025830028100C030E0409060807062013401F031006181229100C030E0409060807062048
:2025A300133F200211061713290F0D030E04090608070620153F2001110717121802100FD6
:2025C3000C050D04090608060720153F1F0210081711110A100F0C050C050905090607203D
:2025E300173E200110081810120A0F100C060B050905090607080117153E30091810120AB1
:202603000F100C070A050905080707020717133E30091710120B0F100C070A050905080706
:202623001017133E2F0A170F130A100F0D070A05090508071017133D2F0A180F130A100F31
:202643000D070906090508071017133D2E0B180E140A0F100C080906090508070F18133D6D
:202663002E0B170F140A0F100C070A07080507080E19113D2D0B180F140A0F100C07090846
:2026830014080C1B113D2C0C180E140A10100C060A081409071F113D2B0D180E140A1010B9
:2026A3000C06090A120B01240F3D2B0D170F140A100F0D050A0A11310F3D2A0D180E150A99
:2026C3000F100D040A0C0F320F3D290E180E150A0F100C030B0E0D330D3D280F180E150A5B
:2026E3000F101A0F0B340D3D2710170F140A1010191207360B3E2510180F140A10101850B8
:202703000B3E2411180F140A0F0F19510B3F2212180F140A0F0A1D520D401F131810140A5B
:202723000F040C0115530B411D1418101409200113550B421A1618101508200112560B4429
:202743001519181015081F0210580B46101B191017061F030C5B094A062118113B05075FE6
:20276300057118113A6C05711811396D05701911386E057018123571077018131A021475FB
:20278300076F191319031079076F191319040B7D076F181517060681056F1815168E056EA9
:2027A3001916148F056B1B1812900566201910910761241B0D3C0453075B291E093A07542C
:2027C30005562E5D0B540551325B0E54054B3759115405473A58125505443C571455054256
:2027E3003D56165505403E561755053E3F561756053D3E561956053C3D571A56053B3B59F0
:202803001B560539395C1B57073835611B310125073831641C2B072507372E671C270C252A
:2028230007362B6B1C2210260735286E1D1D1526073523731D181A26073420761D131F2779
:2028430007341C7A1D0E24270733187F1D092927073314831D042D28053211864F28053224
:202863000D8A4F280532088F4E29053105934E2903C94E2903C94D2A03C94D2A03C94D2AB1
:2028830003CA4C2A03CA4B2B03CA4B2B03CB4A2B05A8041F492C05A20E1C482C079D1619CC
:2028A3002206202C091B037C1A19190E1F2D091906781E1A14111F2D09180776211A121113
:2028C300202D0D18070602240346231C0F111F2E0D17090304220545251B0F111F2E0F17E8
:2028E30009030421062F0312261B0E121F2E0F160A030420072A0811271A0F111F2F111636
:2029030003010603042007250D1029190F111F2F111504010603041F0820120F2A190E1287
:202923001F2F111503020603041F081C160E2B180F111F30131503030503041F081B160E55
:20294300130712180F111F30131404030404041F0819180E0F0A13180F111F301314040340
:202963000404041E0819190D100A13180E121F30151403040404041E0807060B1A0D100A74
:2029830013170F111F31151403050304041E09010A0C1A0C110914170F111F311314030516
:2029A3000205041E140B1B0C110914170E121F311113040B051E140A1C0B120913180E12EF
:2029C3001E321513040B04190205130A0D020C0C110A13170F111F321513040B04140705F4
:2029E30013090A060C0C110914170F111F321513030C04100B0513090A060C0C11091318F6
:202A03000E121E331713030C040501090C0513090A060C0B120913180E111F331713030CB2
:202A2300040403070D0612080A070C0B120813180F111F331913030C040304070D0606040B
:202A430007090A070C0B110912190E121E341913030C040304060E07040507090A070B0CE2
:202A63001109111A0E121E341913030C040304060E07040507090A060C0C1108121A0E1196
:202A83001F341B13030C0402050506030607040507080B060C0C110807240F111E35191359
:202AA300030C0402050505040607040408080B060C0C11330E121E351913030C040106059B
:202AC30005030608040408080B060C0C10340E111F351913030C040106050503060804047C
:202AE30008080B060C0C10340E111E361913030C0401060406030608040408080A070B0D41
:202B030010330E121E361713030C0B0406030608040407090A070B0D10330E121E361B1376
:202B2300030B0401070406030607040507090A060C0D10330D121F2C02081913040A0C041B
:202B430006030607040507090A060C0D10330C131E1020071713040A0C04060306070405FC
:202B630007090A060C0D10320C144E071713040A0C0406030607040507090A060C0D113180
:202B83000A164D081913040A0601040506030607040408090A060B0F11270A1F4D08191338
:202BA300040A0601040506030607040408090A060B0F130826204D0817140409060104059D
:202BC30006030508040408090A060B0C44204C091514040905020405060206080305080A6D
:202BE3000A045C204C0915140508050204050701060802061E011C013F214B0A0F1406076E
:202C03000502040417083B023E214A0B0D1510031E09120128033C22490C0F151003090104
:202C23001409110227053A24470D0F160F0309011409110326063924460E11170D040901F1
:202C430006020C0A0F05240837264310131808010304080305020B0B0F06220B3328421110
:202C63000F2906050304090D0D081F0F302A3F1307661C162A2E3B15076514420136361874
:202C8300076508010B8B1F1D056507020BC7056407030BC7056407030BC7056407020CC7D6
:202CA300056406030BC8056406030BC8056406030BC8056406030BC8056406030AC905644F
:202CC30005040AC9056405030BC9056405030BC9056406020ACA056406020ACA0564060290
:202CE3000ACA0564060209CB036411CB036411CB03650FCC03650FCC03650ECD03660DCD26
:202D030003670BCE03670ACF036907D0036C01D303FF004103FF004103FF004103FF004198
:202D2300FFF8007904F8007904F8607964F8607964F8807964F8807964F8E07964F8E0798D
:202D430064F9007984F9007984F9607984F9607984F9807984F98079E4F9E079E4F9E079A0
:202D6300E4FA0079E4FA0079E4FA6079E4FA607A04FA807A04FA807A04FAE07A04FAE07A93
:202D830004FB007A04FB007A64FB607A64FB607A64FB807A64FB807A64FBE07A84FC007A67
:202DA30084FC007A84FC607A84FC607A84FC807A84FC807AE4FCE07AE4FCE07AE4FD007A9F
:202DC300E4FD007AE4FD607B04FD607B04FD807B04FD807B04FDE07B04FDE07B04FE007BD0
:202DE30064FE007B64FE607B64FE607B64FE807B64FE807B84FEE07B84FEE07B84FF007B07
:202E030084FF007B84FF607B84FF607BE4FF807BE4FFE07BE4F7E07BE4EFE07BE4EFE0734F
:202E2300E4E7E073E4E7E073E4DFE073E4DFE073E4D7E073E4D7E06BE4CFE06BE4CFE06B17
:202E4300E4C7E06BE4C7E06BE4BFE063E4BFE063E4B7E063E4B7E063E4AFE063E4AFE0634F
:202E6300E4A7E05BE4A7E05BE49FE05BE49FE05BE497E05BE497E053E48FE053E48FE05397
:202E8300E487E053E487E053E47FE053E477E04BE477E04BE46FE04BE46FE04BE467E04BDF
:202EA300E467E043E45FE043E45FE043E457E043E457E043E44FE043E44FE03BE447E03B2F
:202EC300E447E03BE43FE03BE43FE03BE437E03BE437E033E42FE033E42FE033E427E0335F
:202EE300E427E033E41FE02BE41FE02BE417E02BE417E02BE40FE02BE40FE02BE407E0239F
:202F0300E407E023E407E023E407E123E507E123E507E223E507E223E507E323E507E3232D
:202F2300E507E423E607E423E607E523E607E523E607E623E607E623E707E723E707E723E1
:202F4300E707E823E707E823E707E923E707E923E807EA23E807EA23E807EB23E807EB2396
:202F6300E807EC23E807EC23E907ED23E907ED23E907EE23E907EE23E907EF23EA07F0234A
:202F8300EA07F023EA07F123EA07F123EA07F223EA07F223EB07F323EB07F323EB07F423FB
:202FA300EB07F423EB07F523EC07F523EC07F623EC07F623EC07F723EC07F723EC07F823B0
:202FC300ED07F823ED07F923ED07F923ED07FA23ED07FA23EE07FB23EE07FB23EE07FC2363
:202FE300EE07FC23EE07FD23EE07FD23EF07FE23EF07FF23EF079F23EF077F23EF077F2379
:203003008F071F238F071F238F06FF238F06FF238F069F238F069F236F067F236F067F23B3
:203023006F061F236F061F236F05FF230F05FF230F059F230F059F230F057F230F057F233B
:203043000F051F22EF051F22EF04FF22EF04FF22EF049F22EF049F228F047F228F047F22EB
:203063008F041F228F041F228F03FF228F039F226F039F226F037F226F037F226F031F2293
:203083006F031F220F02FF220F02FF220F029F220F029F220F027F220F027F21EF021F21DE
:2030A300EF021F21EF01FF21EF01FF21EF019F21EF019F218F017F218F017F218F011F212C
:2030C3008F011F218F00FF216F00FF216F009F216F009F216F007F216F007F216F001F21B4
:2030E3000F001F210F001F210F081F290F081F290F101F290F101F290F181F290F181F29C5
:203103000F201F310F201F310F281F310F281F310F301F310F301F390F381F390F381F393C
:203123000F401F390F401F390F481F390F481F410F501F410F501F410F581F410F581F41CC
:203143000F601F410F601F490F681F490F681F490F701F490F701F490F781F510F801F5144
:203163000F801F510F881F510F881F510F901F510F901F590F981F590F981F590FA01F59B4
:203183000FA01F590FA81F610FA81F610FB01F610FB01F610FB81F610FB81F610FC01F6934
:2031A3000FC01F690FC81F690FC81F690FD01F690FD01F710FD81F710FD81F710FE01F71B4
:2031C3000FE01F710FE81F710FE81F790FF01F790FF81F790FF81E790FF81D790FF81D7949
:2031E3000EF81C790EF81C790EF81B790EF81B790EF81A790EF81A790DF819790DF8197902
:203203000DF818790DF818790DF817790CF817790CF816790CF816790CF815790CF815790C
:203223000CF814790BF814790BF813790BF813790BF812790BF812790AF811790AF8117918
:203243000AF810790AF810790AF80F790AF80E7909F80E7909F80D7909F80D7909F80C7926
:2032630009F80C7908F80B7908F80B7908F80A7908F80A7908F8097908F8097907F8087933
:2032830007F8087907F8077907F8077907F8067907F8067906F8057906F8057906F804793E
:2032A30006F8047906F8037905F8037905F8027905F8027905F8017905F8017905F8007949
:2032C3000428282C303434383C3C4044444848484C4C4C4C4C504C4C4C4C4C4848484444DB
:2032E300403C3C383434302C282824201C18181410100C08080404040000000000000000DB
:2033030000000004040408080C10101418181C202428282C303434383C3C4044444848485A
:203323004C4C4C4C4C504C4C4C4C4C4848484444403C3C383434302C282824201C1818143A
:2033430010100C0808040404000000000000000000000004040408080C10101418181C205A
:203363002428282C303434383C3C4044444848484C4C4C4C4C504C4C4C4C4C48484844441A
:20338300403C3C383434302C282824201C18181410100C080804040400000000000000003A
:1133A30000000004040408080C10101418181C20242D
:200FCA00AE82AF838FC78EC675B90178A3A6BC78A4A6BD78A5A6BE78A6A6BF22AE82AF8348
:200FEA008FC78EC675B90578A386BC78A486BD78A586BE78A686BF75B90222120FCA78A332
:20100A00860778A48606C3EE9F500878A3A60678A4A60778A4860778A58606C3EE9F500C5B
:20102A0078A4860778A4A60678A5A60778A3860778A48606C3EE9F501078A3860778A48621
:20104A000678A3A60678A4A60778A48607BFFF0578A386822278A58607BFFF02800578A434
:20106A0086822278A386077E0078A486057C00ED2FFFEC3EA2E713CF13CF8F8222AE82AF4F
:20108A0083C007C006120FCAD006D0077D007C00EC24A3F98703BBFF04A75180080C8C0594
:2010AA00BC030040EBBD0307E55024A3F8A6518E828F83020FE6AD82AE83AFF0C007C006E5
:2010CA00C005120271D005D006D007D2848D4D8E4E8F4F9022161207FF75264D7527007577
:2010EA0028E0752918854D82854E83854FF01205FB7550FF22755202120BA1851B227523E1
:20110A00007521DF75240175250E90004112049674FFB51B0122AE1B7F0074412EF582E4A5
:20112A003FF58374FF6EF5228F237521DF7524017525060204967555007556007C007D006B
:20114A00755DFF789B760078A27600789F762E78A8763A755F007560007561049000017587
:20116A00F000C005C0041217B3755F007560C875610290040175F0001217B3900000120F40
:20118A00CAD004D00578A6E6F55024FD5003755000C005C004120260E4F54DF54EF54F9016
:2011AA0021661207FF1210FFD004D005E4F554F557F5587553047404B546028003021668B2
:2011CA00C005C004120BF89022B7120CA778918682120AC5AA82AE83AFF075318875320076
:2011EA007533437534028A828E838FF01206EA787186820886831209D7120AC5AB82AE837E
:20120A00AFF07531B07532007533147534028B828E838FF01206EA789286077E008F828E6E
:20122A0083120B19AB82AE83AFF07531E87532007533437534028B828E838FF01206EA1272
:20124A000BCCAF82D004D005BF030280168F469033B475F080C005C0041210C0D004D00534
:20126A00021668758256C005C00412028285825ED004D005E55E20E6030213830557E4B591
:20128A0057020558AC57AD58055674C425565010055575560074C4255550050554755500C9
:2012AA00AB567E00755F0A8E608B828E83C006C005C004C00312186EAA82D003D004D00569
:2012CA00D00674302A78A1F6755F0A7560008B828E83C005C0041218A4AE82D004D00574DC
:2012EA00302E78A0F6AE557F00755F0A8F608E828F83C007C006C005C00412186EAA82AB82
:20130A0083D004D005D006D00774302A789EF674F625554004E5546021755F0A7560008EED
:20132A00828F83C005C0041218A4AE82D004D00574302EFE3395E0FF80047E207F00789DB2
:20134A00A606E554600E789C763AAA5474302A789BF68008789C7620789B762075266D753F
:20136A0027007528E075291890009B75F040C005C0041205FBD004D0057890E6FF30E42BC9
:20138A00789286077E008F5974014EF55A789186037A008B5B4AF55CC3E55B9464E55C94D7
:2013AA00014022755B63755C01801AC004C005789286058D5B755C00789186058D59755A01
:2013CA0000D005D004E5592559FAE55A33FBEA2401FAEB3400FB8A828B83E0FEA3E0FF4E4C
:2013EA0060030214F9E55B255BFEE55C33FFEE2401F582EF3404F58374012557FEE43558B7
:20140A00FFEEF0EFA3F08A828B83EEF0EFA3F0855982855A83C005C004121005AF82D00472
:20142A00D005BFFF030214F9EFB55D030214F974FFB55D12902260C007C005C0041207FFD9
:20144A00D004D005D007C004C0057E00755F3C8E608F828E83C007C006C005C0041218A4F7
:20146A00AA82D004D005D006D00774302A78A7F6755F3C7560008F828E83C005C004121843
:20148A006EAE82D004D0058E037F00755F0A8F608B828F83C007C006C004C0031218A4AA73
:2014AA0082D003D004D006D00774302A78A9F6755F0A7560008B828F83C006C00412186E73
:2014CA00AD82D00474302D78AAF675261B7527017528E07529189000A775F040C005C0042B
:2014EA001205FBD004D005D0068E5DD005D004C3E5579488E558943B40177546039033BE00
:20150A0075F080C005C0041210C0D004D005021668E55E30E2177546039033C675F080C0F0
:20152A0005C0041210C0D004D005021668E55E20E4030211C0E55360021553E55360030211
:20154A0011C0786F8606088607C3EE9428EF940050177546019033D675F080C005C004127C
:20156A0010C0D004D0050216687892E6FF24EB4029902232C005C0041207FF7526B0752795
:20158A00007528E075291890009B75F0401205FBD004D005754603021668BF96004004C2EA
:2015AA00848007EF249B4002D2847890E6FF20E403021654902258C005C0041207FFD004F1
:2015CA00D005E552600515520211C078658606088607C3EE9436EF94CB4014E51B601015B6
:2015EA001BC005C0041210FFD004D0050211C078658606088607C374A39E74C99F4020747A
:20160A0010251B4009AF1B74102FF51B8003751BFFC005C0041210FFD004D0050211C078EA
:20162A00658606088607C3743E9E74CA9F50030211C074FFB51B030211C0051BC005C00442
:20164A001210FFD004D0050211C0902250C005C0041207FFD004D0057552020211C0C00536
:20166A00C004120271D004D005D28474FFB550030217440550E55024FD50037550007E00FF
:20168A007F00EE2EFAEF33FBEA2401F582EB3400F583E0FAA3E0FB4A60788E828F83C0070E
:2016AA00C006C005C004120FCAD004D005D006D007EE4F700478A6A650EE2EFAEF33FBEAAE
:2016CA002401F582EB3400F583E0FAA3E0FBECC39AFAED9BFB741F2AF582E43BF583755F10
:2016EA003C756000C007C006C005C00412178AAA82D004D005D006D0078A518E828F83C0C7
:20170A0007C006C005C004121087D004D005D006D0070EBE00010F74FE2F400302168C9076
:20172A000001E0FEA3E0FF4E7010900000120FCA78A6A650900000120FE6758210120282AD
:20174A007582100202827E007F008E828F83C007C006120FCA78A38682120F1E78A48682D5
:20176A00120F1E78A58682120F1E78A68682120F1ED006D0070EBE00010F74FE2F50CB22F0
:2033B400506F776572206F66660054696D656F75740041626F727465642062792075736581
:1733D40072004261747465727920646563736F6E6E65637465640086
:20178A007A10E4FBFCE58225E0F582E58333F583EB33FBEC33FCEB955FF5F0EC95604006C5
:0917AA00FCABF0438201DADD2200
:06006800E478FFF6D8FD6C
:1F17B300AC82AD83AE60AF61BE0004EF600C1F0FE55F1217D2A3DEFADFF88C828D83227F
:200046007900E94400601B7A009033EB78C975A006E493F2A308B8000205A0D9F4DAF27574
:02006600A0FFF9
:1B17D20020F71130F6138883A88220F509F6A8837583002280FEF280F5F02216
:2017ED00E55F456060467A01E55F25E0F55FE560334012F560E582955FE583956040030A11
:20180D0080E6C3E56013F560E55F13F55FC3E582955FF5F0E58395604005F58385F082C363
:0D182D00E56013F560E55F13F55FDAE12279
:20006E007800E84400600A790175A000E4F309D8FC78C8E84406600C7907900001E4F0A3BB
:04008E00D8FCD9FAC7
:18183A00AA82AB831218526003A380F8C3E5829AF582E5839BF583226A
:0D0039007581AB1202E9E58260030200361A
:1C18520020F71430F6148883A88220F507E6A88375830022E280F7E49322E022A5
:20186E00C2D5E58330E70DD2D5E4C39582F582E49583F583E56030E70BE4C3955FF55FE4AD
:16188E009560F5601217ED30D50BE4C39582F582E49583F5832209
:2018A400C2D5E58330E70DD2D5E4C39582F582E49583F583E56030E70DB2D5E4C3955FF531
:1818C4005FE49560F56012178A30D50BE4C39582F582E49583F58322F1
:00000001FF
